:020000040800F2
:10000000A8040020D90100087D130008111200087F
:1000100079130008E50200088916000800000000B6
:100020000000000000000000000000008313000832
:10003000E902000800000000811300088513000891
:10004000F3010008F3010008F3010008F3010008C0
:10005000F3010008F3010008F3010008F3010008B0
:10006000F3010008F3010008F3010008F3010008A0
:10007000F3010008F3010008F3010008F301000890
:10008000F3010008F3010008F3010008F301000880
:10009000F3010008F3010008F3010008F301000870
:1000A000F3010008F3010008F3010008F301000860
:1000B000F3010008F3010008F3010008F301000850
:1000C000F3010008F3010008F3010008F301000840
:1000D000F3010008F3010008F3010008F301000830
:1000E000F3010008F3010008F3010008F301000820
:1000F000F3010008F3010008F3010008F301000810
:10010000F3010008F3010008F3010008F3010008FF
:10011000F3010008F3010008F3010008F3010008EF
:10012000F3010008F3010008F3010008F3010008DF
:10013000F30100080000000000000000F3010008C7
:10014000F3010008F3010008F3010008F3010008BF
:10015000F3010008F3010008F3010008F3010008AF
:10016000F3010008F3010008F3010008F30100089F
:10017000F3010008F3010008F3010008000000008B
:1001800000000000F3010008000000000000000073
:10019000F30100080000000000000000F301000867
:1001A000000000000000000000000000F301000853
:1001B000F3010008F3010008F3010008F30100084F
:1001C000F3010008DFF80CD000F07AF8004800478F
:1001D000E5160008A80400200648804706480047A6
:1001E000FEE7FEE7FEE7FEE7FEE7FEE7FEE7FEE7E7
:1001F000FEE7FEE749140008C50100082DE9F05F9D
:100200000546002092469B46884606468146402485
:100210001BE0284641464746224600F041F8534637
:100220005A46C01A914110D311461846224600F092
:1002300028F82D1A67EB01084F46224601200021BD
:1002400000F01FF817EB00094E41201EA4F1010435
:10025000DFDC484631462A464346BDE8F09FD2B22D
:1002600001E000F8012B491EFBD270470022F6E79F
:1002700010B513460A4604461946FFF7F0FF20461C
:1002800010BD202A04DB203A00FA02F1002070475A
:100290009140C2F1200320FA03F3194390407047C4
:1002A000202A04DB203A21FA02F00021704721FACB
:1002B00002F3D040C2F12002914008431946704732
:1002C000064C074D06E0E06840F0010394E80700A3
:1002D00098471034AC42F6D3FFF778FF3C1700087C
:1002E0005C17000800BFFEE7704772B600BFFEE76C
:1002F00070B5044600F010F906462546681C10B19A
:1003000004480078054400BF00F006F9801BA842AD
:10031000FAD370BD08000020F8B502460B46002550
:10032000002400200021D9E0012606FA01F51E680C
:1003300006EA0504AC4275D11E7906F00306012ECB
:1003400004D01E7906F00306022E13D190684F00E8
:100350000326BE40B0434F00DE68BE40304390608D
:10036000506801268E40B0431E79C6F300168E40B9
:10037000304350601E7906F00306032E09D0D06882
:100380004F000326BE40B0434F009E68BE4030433E
:10039000D0601E7906F00306022E13D1CF0802F1B9
:1003A000200656F827004E07F70E0F26BE40B04332
:1003B0004F07FF0E1E69BE403043CF0802F12006F2
:1003C00046F8270010684F000326BE40B0431E7950
:1003D00006F003064F00BE40304310605E6806F032
:1003E0008056B6F1805F78D100BF002600963D4E62
:1003F000366846F480463B4F3E603E46366806F41B
:100400008046009600BF00BF374E8F0856F8270081
:100410008E07370F0F26BE40B043344EB24202D192
:1004200000261FE059E0324EB24201D1012619E008
:10043000304EB24201D1022614E02F4EB24201D119
:1004400003260FE02D4EB24201D104260AE02C4EC5
:10045000B24201D1052605E02A4EB24201D106265C
:1004600000E007268F073F0FBE4030431E4E8F0827
:1004700046F82700244E3068A0435E6806F48036B4
:10048000B6F5803F00D120431F4E3060361D3068E6
:10049000A0435E6806F40036B6F5003F00D1204365
:1004A000194E361D3060361D3068A0435E6806F474
:1004B0008016B6F5801F00D12043134E08363060F9
:1004C000361D3068A0435E6806F40016B6F5001FBE
:1004D00000D120430C4E0C363060491C1029FFF42B
:1004E00023AFF8BD44380240083801400000024004
:1004F0000004024000080240000C024000100240CC
:100500000014024000180240003C01400AB1816121
:1005100001E00B04836170470148006870470000E8
:100520000000002070B504460CB9012070BD94F89D
:100530003D0028B9002084F83C00204600F0DAF89D
:10054000242084F83D002068006820F00100216824
:1005500008602068006840F4004021680860206856
:10056000006820F400402168086000F099FA054610
:100570005C496068884206D85B48854201D2012008
:1005800007E0002005E05948854201D2012000E043
:100590000020012800D1C9E75548B5FBF0F62068D6
:1005A000406820F03F003043216848604D49606852
:1005B000884201D8701C07E04FF4967070434FF4E6
:1005C0007A71B0FBF1F0401C2168096A21F03F010B
:1005D00008432168086243496068884214D8681E4D
:1005E00061684900B0FBF1F0401CC0F30B00042827
:1005F00001D204203DE0681E61684900B0FBF1F0C3
:10060000401CC0F30B0034E0A06838B9681E616874
:1006100001EB4101B0FBF1F0401C0AE0681E61688B
:1006200001EBC10202EB0111B0FBF1F0401C40F400
:100630008040C0F30B0008B901201AE0A06848B957
:10064000681E616801EB4101B0FBF1F0401CC0F392
:100650000B000CE0681E616801EBC10202EB0111A6
:10066000B0FBF1F0401CC0F30B0040F4804040F4BC
:1006700000402168C9694CF6FF7291430843216824
:10068000C861D4E9070108432168096821F0C00165
:10069000084321680860D4E9031008432168896889
:1006A00048F2FF329143084321688860D4E905018C
:1006B00008432168C96821F0FF0108432168C86028
:1006C0002068006840F00100216808600020206474
:1006D000202084F83D000020206384F83E0000BF05
:1006E00024E70000A086010080841E0000093D0070
:1006F00040420F0010B586B00446142101A8FFF750
:10070000B5FD1B492068884230D100BF0020009011
:100710001848006840F00200164908600846006862
:1007200000F00200009000BF00BF4FF44070019045
:1007300012200290012003900320049004200590D1
:1007400001A90D48FFF7E8FD00BF0020009009480F
:100750001030006840F40010064910310860084667
:10076000006800F40010009000BF00BF06B010BD8C
:100770000054004030380240000402400348006842
:1007800003490978084401490860704700000020C7
:100790000800002010B50D48006840F400700B49B7
:1007A00008600846006840F48060086008460068F9
:1007B00040F480700860032000F096F8002000F0FC
:1007C00007F800F02BF8002010BD0000003C0240AC
:1007D00070B504460E4800784FF47A71B1FBF0F022
:1007E0000C490968B1FBF0F5284600F079FC08B126
:1007F000012070BD102C07D200222146501E00F0AF
:1008000035F80548046001E00120F2E70020F0E738
:10081000080000200C0000200400002008B500BFE4
:10082000002000901048006840F480400E490860A5
:100830000846006800F48040009000BF00BF00BF81
:1008400000200090081F006840F08050091F0860D9
:100850000846006800F08050009000BF00BF0720ED
:1008600000F042F808BD0000443802402DE9F05F76
:1008700080460D461646002700F008FF0746394619
:100880002A46334601F00700C0F1070ABAF1040F07
:1008900002D94FF0040A01E0C0F1070AD14600F185
:1008A000040ABAF1070F02D24FF0000A01E0A0F1EA
:1008B000030AD4464FF0010A0AFA09FAAAF1010A1A
:1008C0000AEA020A0AFA0CFA4FF0010B0BFA0CFBC7
:1008D000ABF1010B0BEA030B4AEA0B04214640463D
:1008E00000F0DCFEBDE8F09F00BF00F00702064B01
:1008F00019684FF6FF031940044B0B4343EA0221EA
:10090000014B196000BF70470CED00E00000FA05D4
:1009100070B504460D460CB9012070BD58480068FA
:1009200000F00F00A84209D255490D700846006832
:1009300000F00F00A84201D00120EEE7207800F07F
:10094000020002281DD1207800F00400042805D1FF
:100950004C48006840F4E0504A490860207800F0B4
:100960000800082805D14748006840F46040454920
:1009700008604448006820F0F000A168084341493D
:100980000860207800F00100A8B36068012807D152
:100990003C4808380068C0F34040B8B90120BCE7C3
:1009A0006068022802D06068032807D135480838FB
:1009B0000068C0F3406048B90120AEE7314808380C
:1009C0000068C0F3400008B90120A6E72D48006880
:1009D00020F00300616808432A490860FFF79CFD86
:1009E000064609E0FFF798FD801B41F288318842F6
:1009F00002D9032091E707E02248006800F00C00CC
:100A00006168B0EB810FEDD11D48006800F00F0068
:100A1000A84209D91A490D700846006800F00F0075
:100A2000A84201D0012078E7207800F004000428D3
:100A300007D11448006820F4E050E16808431149E8
:100A40000860207800F00800082808D10D480068E8
:100A500020F46040216940EAC1000A49086000F0C2
:100A60003FF808490968C1F30311074A515CC840BF
:100A70000649086006480068FFF7AAFE00204CE718
:100A8000003C024008380240241700080C000020F7
:100A90000400002001480068704700000C0000209E
:100AA00000B5FFF7F7FF04490968C1F38221034A43
:100AB000515CC84000BD00000838024034170008EF
:100AC00000B5FFF7E7FF04490968C1F34231034A63
:100AD000515CC84000BD00000838024034170008CF
:100AE0002DE9F047002400250026A146A2463F48F4
:100AF000006800F00C0030B1042807D0082808D0A6
:100B00000C286BD138E0DFF8E8A06AE0DFF8E4A059
:100B100067E03648001F006800F03F043348001FBC
:100B2000006800F4800078B132483049091F096834
:100B3000C1F38811A0FB017001462246002338460C
:100B4000FFF75CFB05460DE029482849091F0968A5
:100B5000C1F38811A0FB0171224600233846FFF73C
:100B60004DFB05462148001F0068C0F30140401CB2
:100B70004600B5FBF6FA34E01C48001F006800F0A0
:100B80003F041A48001F006800F4800078B119483B
:100B90001649091F0968C1F38811A0FB01700146BD
:100BA000224600233846FFF729FB05460EE0104891
:100BB0000E49091F0968C1F38811A0FB01700146A5
:100BC000224600233846FFF719FB05460748001F59
:100BD0000068C0F30279B5FBF9FA02E0DFF810A073
:100BE00000BF00BF5046BDE8F08700000838024053
:100BF0000024F40000127A00F8B504460CB9012074
:100C0000F8BD207800F0010000286FD0FE48006891
:100C100000F00C0004281BD0FB48006800F00C001A
:100C2000082807D1F848001F006800F48000B0F5DC
:100C3000800F0DD0F448006800F00C000C2813D190
:100C4000F148001F006800F48000B0F5800F0BD160
:100C5000ED4808380068C0F34040002859D060686B
:100C6000002856D10120CBE700BF6068B0F5803F77
:100C700008D1E5480838006840F48030E249083976
:100C800008601EE06068B0F5A02F0DD1DE4808387E
:100C9000006840F48020DC49083908600846006894
:100CA00040F4803008600CE0D7480838006820F431
:100CB0008030D549083908600846006820F4802053
:100CC000086000BF606890B1FFF726FC054606E0AB
:100CD000FFF722FC401B642801D9032090E7CA4893
:100CE00008380068C0F340400028F1D011E0FFF759
:100CF00013FC054606E0FFF70FFC401B642801D9F2
:100D000003207DE7C04808380068C0F34040002851
:100D1000F1D1207800F0020002286BD1BA480068B7
:100D200000F00C00B8B1B848006800F00C000828CA
:100D300005D1B548001F006800F4800058B1B248E2
:100D4000006800F00C000C281CD1AF48001F0068A0
:100D500000F48000B0B9AC4808380068C0F3400027
:100D600020B1E068012801D0012049E7A6480838F1
:100D7000006820F0F800216940EAC100A249083962
:100D8000086037E0E06800B30120A0490860FFF781
:100D9000C3FB054606E0FFF7BFFB401B022801D955
:100DA00003202DE7984808380068C0F34000002869
:100DB000F1D095480838006820F0F800216940EA31
:100DC000C10091490839086014E000208F4908608B
:100DD000FFF7A2FB054606E0FFF79EFB401B02283B
:100DE00001D903200CE7884808380068C0F34000A8
:100DF0000028F1D1207800F0080008282CD1606983
:100E0000A8B1012082490860FFF786FB054606E08D
:100E1000FFF782FB401B022801D90320F0E67A4845
:100E20006C300068C0F340000028F1D014E00020CE
:100E300077490860FFF770FB054606E0FFF76CFB9B
:100E4000401B022801D90320DAE66F486C300068A5
:100E5000C0F340000028F1D1207800F004000428FD
:100E600070D1002768483830006800F0805090B991
:100E700000BF0020009064483830006840F0805087
:100E80006149383108600846006800F080500090E1
:100E900000BF00BF01275F48006800F48070B0B950
:100EA0005C48006840F480705A490860FFF734FBE2
:100EB000054606E0FFF730FB401B022801D903205E
:100EC0009EE65448006800F480700028F2D000BF0D
:100ED000A068012808D14C486830006840F0010043
:100EE0004949683108601DE0A06805280DD14648D1
:100EF0006830006840F004004349683108600846E3
:100F0000006840F0010008600CE03F48683000686D
:100F100020F001003C49683108600846006820F074
:100F20000400086000BFA068A8B1FFF7F5FA054605
:100F300009E0FFF7F1FA401B41F28831884202D9FB
:100F400003205DE626E0304868300068C0F34000CA
:100F50000028EED013E0FFF7DFFA054608E0FFF7C0
:100F6000DBFA401B41F28831884201D9032047E671
:100F7000254868300068C0F340000028EFD1012FF9
:100F800007D121483830006820F080501E493831A0
:100F9000086000BFA069002851D01B48006800F01D
:100FA0000C00082861D0A069022849D10020174907
:100FB0000866FFF7B1FA054606E0FFF7ADFA401BF9
:100FC000022801D903201BE60F4808380068C0F347
:100FD00040600028F1D1D4E907010843616A40EA82
:100FE00081110122A06AC2EB500041EA00412C208D
:100FF000005D41EA00613020005D41EA0070024975
:10100000091F0860012007E008380240000047423D
:10101000800E4742007000402F490866FFF77CFAB7
:10102000054606E0FFF778FA401B022801D90320A5
:10103000E6E52A480068C0F340600028F2D048E0A6
:10104000002025490866FFF767FA054606E0FFF726
:1010500063FA401B022801D90320D1E51F4800682C
:10106000C0F340600028F2D133E0A069012800D12C
:10107000C6E51A48001D0668A069012827D006F4B5
:101080008001E069814222D106F03F01206A81425D
:101090001DD147F6C0703040616AB0EB811F16D198
:1010A00006F440310122A06AC2EB5000B1EB004FC0
:1010B0000DD106F070612C20005DB1EB006F06D100
:1010C00006F0E0413020005DB1EB007F01D001204F
:1010D00096E5002094E500000000474200380240F9
:1010E00070B504462546681EB0F1807F01D301200B
:1010F0000FE0681E4FF0E02148610F214FF0FF30F4
:1011000000F0CCFA00204FF0E02188610720086150
:10111000002070BD10B504460CB9012010BDA069B7
:1011200000B100E000BF94F83D0028B9002084F829
:101130003C00204600F028F8242084F83D00206878
:10114000C06820F400502168C860204600F086F98D
:101150002068006920F49040216808612068406997
:1011600020F02A00216848612068C06840F40050DF
:101170002168C86000202064202084F83D0084F8A5
:101180003E000020CAE7000010B586B004461421D6
:1011900001A8FFF76BF81B49206888422FD100BFD8
:1011A000002000901848006840F40030164908609C
:1011B0000846006800F40030009000BF00BF00BF88
:1011C0000020009010481038006840F001000E49DF
:1011D000103908600846006800F00100009000BF68
:1011E00000BF0C20019002200290002003900320F9
:1011F00004900720059001A90448FFF78DF806B078
:1012000010BD000000440040403802400000024091
:1012100000BFFEE700B587B0142102A8FFF726F84B
:1012200000BF002001903348006840F004003149BD
:1012300008600846006800F00400019000BF00BF8D
:1012400000BF002001900846006840F08000086060
:101250000846006800F08000019000BF00BF00BF9A
:10126000002001900846006840F001000860084630
:10127000006800F00100019000BF00BF00BF002027
:1012800001900846006840F00200086008460068C7
:1012900000F00200019000BF00BF002201211648AB
:1012A000FFF734F9002220211448FFF72FF94FF4FB
:1012B00000500290124803900020049002A90E48AA
:1012C000FFF72AF801200290039000200490059077
:1012D00002A90948FFF720F820200290012003907E
:1012E00000200490059002A90448FFF715F807B004
:1012F00000BD0000303802400008024000000240FB
:101300000000211010B50B480B4908600B484860DD
:10131000002109488160C1604FF4804101610021D2
:1013200041618161C1610162FFF7FCF808B1FEF71C
:10133000DCFF10BD0054004010000020A08601001A
:1013400010B50B480B4908604FF4E13048600021AC
:1013500008488160C16001610C2141610021816107
:10136000C161FFF7D7FE08B1FEF7BFFF10BD000057
:10137000004400406400002000BFFEE700BFFEE71D
:101380007047704710B5FFF7F9F910BD00B593B07D
:10139000342106A8FEF76AFF142101A8FEF766FFB4
:1013A00000BF002000902648006840F0805024498B
:1013B00008600846006800F08050009000BF00BF41
:1013C00000BF002000901F48006820F4404040F417
:1013D00080401C4908600846006800F440400090C6
:1013E00000BF00BF022006900120099010200A9043
:1013F00002200C9000210D9110210E914FF4A87144
:101400000F910421109102211191129106A8FFF76A
:10141000F3FB08B1FEF769FF0F2001900220029054
:10142000002003904FF4805004900020059002218A
:1014300001A8FFF76DFA08B1FEF757FF13B000BD22
:1014400040380240007000400348006840F47000DB
:10145000014908607047000088ED00E02DE9F84F71
:1014600004462068006920F44050E1680843216880
:1014700008612169A068084361690843E16908437C
:1014800000902068C06849F20C61884300990843C5
:101490002168C8602068406920F44070A169084351
:1014A0002168486176492068884203D075492068E0
:1014B000884203D1FFF704FB814602E0FFF7F0FA10
:1014C0008146E069B0F5004F6CD102206168A0FB55
:1014D000015003461920A9FB007001462A463846F0
:1014E000FEF78CFE6421B0FBF1F04FEA001A0220F7
:1014F0006168A0FB01510B461920A9FB00712A4627
:101500003846FEF77BFE834602206168A0FB01504F
:1015100003461920A9FB00712A463846FEF76EFEE5
:101520006421B0FBF1F000EBC00101EB0010ABEB6C
:101530008000322101EBC0006421B0FBF1F000F02B
:10154000F8000AEB400A02206168A0FB0150034644
:101550001920A9FB007001462A463846FEF74EFEC8
:10156000834602206168A0FB015003461920A9FBB5
:1015700000712A463846FEF741FE6421B0FBF1F0C7
:1015800000EBC00101EB0010ABEB8000322101EB5E
:10159000C0006421B0FBF1F000F007005044216866
:1015A00088606AE004206168A0FB015003461920AE
:1015B000A9FB007001462A463846FEF71FFE824608
:1015C00004206168A0FB015003461920A9FB0070AC
:1015D00001462A463846FEF711FE6421B0FBF1F0C1
:1015E00000EBC00101EB0010AAEB8000322101EBFF
:1015F00000106421B0FBF1F000F0F00A04206168F3
:10160000A0FB017003461920A9FB00513A46284669
:10161000FEF7F4FD6421B0FBF1F00AEB001A0420A0
:101620006168A0FB01510B461920A9FB00712A46F5
:101630003846FEF7E3FD834604206168A0FB0150B5
:1016400003461920A9FB007001462A463846FEF7DA
:10165000D5FD6421B0FBF1F000EBC00101EB0010FF
:10166000ABEB8000322101EB00106421B0FBF1F004
:1016700000F00F00504421688860BDE8F88F00003A
:10168000001001400014014000BFFEE7024800685E
:10169000C0F30220704700000CED00E010B50028F8
:1016A00004DB0A07130E054A135406E00A07140E5A
:1016B000034A00F00F031B1FD45410BD00E400E0E8
:1016C00018ED00E002E008C8121F08C1002AFAD194
:1016D00070477047002001E001C1121F002AFBD1B2
:1016E00070470000FFF756F8FFF750FEFFF792FD36
:1016F000FFF708FEFFF724FE11E04FF4FA70FEF743
:10170000F7FD012211460648FEF700FF4FF4FA707C
:10171000FEF7EEFD002201210148FEF7F7FEECE79F
:101720000008024000000000000000000102030465
:101730000607080900000000010203045C17000806
:101740000000002010000000C41600086C170008FC
:101750001000002098040000D416000800000000CB
:0C17600010000000010000000024F40054
:04000005080001C529
:00000001FF
